{
  "_format": "hh-sol-artifact-1",
  "contractName": "AffirmingPortal",
  "sourceName": "contracts/AffirmingPortal.sol",
  "abi": [
    {
      "inputs": [],
      "stateMutability": "payable",
      "type": "constructor"
    },
    {
      "anonymous": false,
      "inputs": [
        {
          "indexed": false,
          "internalType": "enum AffirmingPortal.Reaction",
          "name": "reaction",
          "type": "uint8"
        },
        {
          "indexed": false,
          "internalType": "string",
          "name": "message",
          "type": "string"
        },
        {
          "indexed": true,
          "internalType": "address",
          "name": "from",
          "type": "address"
        },
        {
          "indexed": false,
          "internalType": "uint256",
          "name": "timestamp",
          "type": "uint256"
        }
      ],
      "name": "NewAffirmation",
      "type": "event"
    },
    {
      "inputs": [
        {
          "internalType": "enum AffirmingPortal.Reaction",
          "name": "reaction",
          "type": "uint8"
        },
        {
          "internalType": "string",
          "name": "message",
          "type": "string"
        }
      ],
      "name": "affirm",
      "outputs": [],
      "stateMutability": "nonpayable",
      "type": "function"
    },
    {
      "inputs": [
        {
          "internalType": "uint256",
          "name": "",
          "type": "uint256"
        }
      ],
      "name": "affirmList",
      "outputs": [
        {
          "internalType": "enum AffirmingPortal.Reaction",
          "name": "reaction",
          "type": "uint8"
        },
        {
          "internalType": "string",
          "name": "message",
          "type": "string"
        },
        {
          "internalType": "address",
          "name": "waver",
          "type": "address"
        },
        {
          "internalType": "uint256",
          "name": "timestamp",
          "type": "uint256"
        }
      ],
      "stateMutability": "view",
      "type": "function"
    },
    {
      "inputs": [],
      "name": "getAllAffirmed",
      "outputs": [
        {
          "components": [
            {
              "internalType": "enum AffirmingPortal.Reaction",
              "name": "reaction",
              "type": "uint8"
            },
            {
              "internalType": "string",
              "name": "message",
              "type": "string"
            },
            {
              "internalType": "address",
              "name": "waver",
              "type": "address"
            },
            {
              "internalType": "uint256",
              "name": "timestamp",
              "type": "uint256"
            }
          ],
          "internalType": "struct AffirmingPortal.Affirm[]",
          "name": "",
          "type": "tuple[]"
        }
      ],
      "stateMutability": "view",
      "type": "function"
    },
    {
      "inputs": [],
      "name": "getTotalAffirmed",
      "outputs": [
        {
          "internalType": "uint256",
          "name": "",
          "type": "uint256"
        }
      ],
      "stateMutability": "view",
      "type": "function"
    },
    {
      "inputs": [
        {
          "internalType": "address",
          "name": "",
          "type": "address"
        }
      ],
      "name": "lastAffirmedAt",
      "outputs": [
        {
          "internalType": "uint256",
          "name": "",
          "type": "uint256"
        }
      ],
      "stateMutability": "view",
      "type": "function"
    }
  ],
  "bytecode": "0x6080604052620000336040518060600160405280602c815260200162001509602c91396200003960201b620007521760201c565b620001cd565b620000d98160405160240162000050919062000146565b6040516020818303038152906040527f41304fac000000000000000000000000000000000000000000000000000000007bffffffffffffffffffffffffffffffffffffffffffffffffffffffff19166020820180517bffffffffffffffffffffffffffffffffffffffffffffffffffffffff8381831617835250505050620000dc60201b60201c565b50565b60008151905060006a636f6e736f6c652e6c6f679050602083016000808483855afa5050505050565b600062000112826200016a565b6200011e818562000175565b93506200013081856020860162000186565b6200013b81620001bc565b840191505092915050565b6000602082019050818103600083015262000162818462000105565b905092915050565b600081519050919050565b600082825260208201905092915050565b60005b83811015620001a657808201518184015260208101905062000189565b83811115620001b6576000848401525b50505050565b6000601f19601f8301169050919050565b61132c80620001dd6000396000f3fe608060405234801561001057600080fd5b50600436106100575760003560e01c806329d078911461005c5780633b868d021461008f5780635658fc37146100ad578063709d3ea5146100cb578063e566e4a6146100fb575b600080fd5b61007660048036038101906100719190610b16565b610117565b6040516100869493929190610d97565b60405180910390f35b61009761020c565b6040516100a49190610ef8565b60405180910390f35b6100b5610257565b6040516100c29190610d75565b60405180910390f35b6100e560048036038101906100e09190610a99565b61042f565b6040516100f29190610ef8565b60405180910390f35b61011560048036038101906101109190610ac2565b610447565b005b6002818154811061012757600080fd5b90600052602060002090600402016000915090508060000160009054906101000a900460ff169080600101805461015d906110d3565b80601f0160208091040260200160405190810160405280929190818152602001828054610189906110d3565b80156101d65780601f106101ab576101008083540402835291602001916101d6565b820191906000526020600020905b8154815290600101906020018083116101b957829003601f168201915b5050505050908060020160009054906101000a900473ffffffffffffffffffffffffffffffffffffffff16908060030154905084565b600061024f6040518060400160405280601781526020017f5765206861766520256420746f74616c207761766573210000000000000000008152506000546107eb565b600054905090565b60606002805480602002602001604051908101604052809291908181526020016000905b8282101561042657838290600052602060002090600402016040518060800160405290816000820160009054906101000a900460ff1660028111156102e9577f4e487b7100000000000000000000000000000000000000000000000000000000600052602160045260246000fd5b6002811115610321577f4e487b7100000000000000000000000000000000000000000000000000000000600052602160045260246000fd5b8152602001600182018054610335906110d3565b80601f0160208091040260200160405190810160405280929190818152602001828054610361906110d3565b80156103ae5780601f10610383576101008083540402835291602001916103ae565b820191906000526020600020905b81548152906001019060200180831161039157829003601f168201915b505050505081526020016002820160009054906101000a900473ffffffffffffffffffffffffffffffffffffffff1673ffffffffffffffffffffffffffffffffffffffff1673ffffffffffffffffffffffffffffffffffffffff1681526020016003820154815250508152602001906001019061027b565b50505050905090565b60036020528060005260406000206000915090505481565b6104876040518060400160405280601081526020017f257320772f206d657373616765202573000000000000000000000000000000008152503383610887565b60016000808282546104999190610fda565b92505081905550600260405180608001604052808460028111156104e6577f4e487b7100000000000000000000000000000000000000000000000000000000600052602160045260246000fd5b81526020018381526020013373ffffffffffffffffffffffffffffffffffffffff16815260200142815250908060018154018082558091505060019003906000526020600020906004020160009091909190915060008201518160000160006101000a81548160ff0219169083600281111561058b577f4e487b7100000000000000000000000000000000000000000000000000000000600052602160045260246000fd5b021790555060208201518160010190805190602001906105ac92919061094f565b5060408201518160020160006101000a81548173ffffffffffffffffffffffffffffffffffffffff021916908373ffffffffffffffffffffffffffffffffffffffff1602179055506060820151816003015550503373ffffffffffffffffffffffffffffffffffffffff167f8127e264cf854d314c2ba85c24545b8007a64fd5327f3eb7501618954b4f2dd983834260405161064a93929190610de3565b60405180910390a26000655af3107a40009050478111156106a0576040517f08c379a000000000000000000000000000000000000000000000000000000000815260040161069790610eb8565b60405180910390fd5b60003373ffffffffffffffffffffffffffffffffffffffff16826040516106c690610d60565b60006040518083038185875af1925050503d8060008114610703576040519150601f19603f3d011682016040523d82523d6000602084013e610708565b606091505b505090508061074c576040517f08c379a000000000000000000000000000000000000000000000000000000000815260040161074390610ed8565b60405180910390fd5b50505050565b6107e8816040516024016107669190610e21565b6040516020818303038152906040527f41304fac000000000000000000000000000000000000000000000000000000007bffffffffffffffffffffffffffffffffffffffffffffffffffffffff19166020820180517bffffffffffffffffffffffffffffffffffffffffffffffffffffffff8381831617835250505050610926565b50565b6108838282604051602401610801929190610e88565b6040516020818303038152906040527f9710a9d0000000000000000000000000000000000000000000000000000000007bffffffffffffffffffffffffffffffffffffffffffffffffffffffff19166020820180517bffffffffffffffffffffffffffffffffffffffffffffffffffffffff8381831617835250505050610926565b5050565b61092183838360405160240161089f93929190610e43565b6040516020818303038152906040527fe0e9ad4f000000000000000000000000000000000000000000000000000000007bffffffffffffffffffffffffffffffffffffffffffffffffffffffff19166020820180517bffffffffffffffffffffffffffffffffffffffffffffffffffffffff8381831617835250505050610926565b505050565b60008151905060006a636f6e736f6c652e6c6f679050602083016000808483855afa5050505050565b82805461095b906110d3565b90600052602060002090601f01602090048101928261097d57600085556109c4565b82601f1061099657805160ff19168380011785556109c4565b828001600101855582156109c4579182015b828111156109c35782518255916020019190600101906109a8565b5b5090506109d191906109d5565b5090565b5b808211156109ee5760008160009055506001016109d6565b5090565b6000610a05610a0084610f38565b610f13565b905082815260208101848484011115610a1d57600080fd5b610a28848285611091565b509392505050565b600081359050610a3f816112b8565b92915050565b600081359050610a54816112cf565b92915050565b600082601f830112610a6b57600080fd5b8135610a7b8482602086016109f2565b91505092915050565b600081359050610a93816112df565b92915050565b600060208284031215610aab57600080fd5b6000610ab984828501610a30565b91505092915050565b60008060408385031215610ad557600080fd5b6000610ae385828601610a45565b925050602083013567ffffffffffffffff811115610b0057600080fd5b610b0c85828601610a5a565b9150509250929050565b600060208284031215610b2857600080fd5b6000610b3684828501610a84565b91505092915050565b6000610b4b8383610cdf565b905092915050565b610b5c81611030565b82525050565b610b6b81611030565b82525050565b6000610b7c82610f79565b610b868185610f9c565b935083602082028501610b9885610f69565b8060005b85811015610bd45784840389528151610bb58582610b3f565b9450610bc083610f8f565b925060208a01995050600181019050610b9c565b50829750879550505050505092915050565b610bef8161107f565b82525050565b610bfe8161107f565b82525050565b6000610c0f82610f84565b610c198185610fb8565b9350610c298185602086016110a0565b610c32816111f2565b840191505092915050565b6000610c4882610f84565b610c528185610fc9565b9350610c628185602086016110a0565b610c6b816111f2565b840191505092915050565b6000610c83603483610fc9565b9150610c8e82611203565b604082019050919050565b6000610ca6602783610fc9565b9150610cb182611252565b604082019050919050565b6000610cc9600083610fad565b9150610cd4826112a1565b600082019050919050565b6000608083016000830151610cf76000860182610be6565b5060208301518482036020860152610d0f8282610c04565b9150506040830151610d246040860182610b53565b506060830151610d376060860182610d42565b508091505092915050565b610d4b81611075565b82525050565b610d5a81611075565b82525050565b6000610d6b82610cbc565b9150819050919050565b60006020820190508181036000830152610d8f8184610b71565b905092915050565b6000608082019050610dac6000830187610bf5565b8181036020830152610dbe8186610c3d565b9050610dcd6040830185610b62565b610dda6060830184610d51565b95945050505050565b6000606082019050610df86000830186610bf5565b8181036020830152610e0a8185610c3d565b9050610e196040830184610d51565b949350505050565b60006020820190508181036000830152610e3b8184610c3d565b905092915050565b60006060820190508181036000830152610e5d8186610c3d565b9050610e6c6020830185610b62565b8181036040830152610e7e8184610c3d565b9050949350505050565b60006040820190508181036000830152610ea28185610c3d565b9050610eb16020830184610d51565b9392505050565b60006020820190508181036000830152610ed181610c76565b9050919050565b60006020820190508181036000830152610ef181610c99565b9050919050565b6000602082019050610f0d6000830184610d51565b92915050565b6000610f1d610f2e565b9050610f298282611105565b919050565b6000604051905090565b600067ffffffffffffffff821115610f5357610f526111c3565b5b610f5c826111f2565b9050602081019050919050565b6000819050602082019050919050565b600081519050919050565b600081519050919050565b6000602082019050919050565b600082825260208201905092915050565b600081905092915050565b600082825260208201905092915050565b600082825260208201905092915050565b6000610fe582611075565b9150610ff083611075565b9250827fffffffffffffffffffffffffffffffffffffffffffffffffffffffffffffffff0382111561102557611024611136565b5b828201905092915050565b600061103b82611055565b9050919050565b6000819050611050826112a4565b919050565b600073ffffffffffffffffffffffffffffffffffffffff82169050919050565b6000819050919050565b600061108a82611042565b9050919050565b82818337600083830152505050565b60005b838110156110be5780820151818401526020810190506110a3565b838111156110cd576000848401525b50505050565b600060028204905060018216806110eb57607f821691505b602082108114156110ff576110fe611194565b5b50919050565b61110e826111f2565b810181811067ffffffffffffffff8211171561112d5761112c6111c3565b5b80604052505050565b7f4e487b7100000000000000000000000000000000000000000000000000000000600052601160045260246000fd5b7f4e487b7100000000000000000000000000000000000000000000000000000000600052602160045260246000fd5b7f4e487b7100000000000000000000000000000000000000000000000000000000600052602260045260246000fd5b7f4e487b7100000000000000000000000000000000000000000000000000000000600052604160045260246000fd5b6000601f19601f8301169050919050565b7f547279696e6720746f207769746864726177206d6f7265206d6f6e657920746860008201527f616e2074686520636f6e7472616374206861732e000000000000000000000000602082015250565b7f4661696c656420746f207769746864726177206d6f6e65792066726f6d20636f60008201527f6e74726163742e00000000000000000000000000000000000000000000000000602082015250565b50565b600381106112b5576112b4611165565b5b50565b6112c181611030565b81146112cc57600080fd5b50565b600381106112dc57600080fd5b50565b6112e881611075565b81146112f357600080fd5b5056fea2646970667358221220014b2a7e49d6be5fe38e81bfe078f277eee99a49b8acca1549bf7954c891bb0864736f6c634300080400334772616e6420526973696e672c204c657473206d616b6520616e2041666669726d6174696f6e732042616e6b",
  "linkReferences": {},
  "deployedLinkReferences": {}
}