{
  "_format": "hh-sol-artifact-1",
  "contractName": "AffirmingPortal",
  "sourceName": "contracts/AffirmingPortal.sol",
  "abi": [
    {
      "inputs": [],
      "stateMutability": "nonpayable",
      "type": "constructor"
    },
    {
      "inputs": [],
      "name": "affirm",
      "outputs": [],
      "stateMutability": "nonpayable",
      "type": "function"
    },
    {
      "inputs": [],
      "name": "getTotalAffirmed",
      "outputs": [
        {
          "internalType": "uint256",
          "name": "",
          "type": "uint256"
        }
      ],
      "stateMutability": "view",
      "type": "function"
    }
  ],
  "bytecode": "0x608060405234801561001057600080fd5b5061003c6040518060600160405280602c8152602001610776602c913961004160201b61013d1760201c565b6101c4565b6100dd816040516024016100559190610142565b6040516020818303038152906040527f41304fac000000000000000000000000000000000000000000000000000000007bffffffffffffffffffffffffffffffffffffffffffffffffffffffff19166020820180517bffffffffffffffffffffffffffffffffffffffffffffffffffffffff83818316178352505050506100e060201b60201c565b50565b60008151905060006a636f6e736f6c652e6c6f679050602083016000808483855afa5050505050565b600061011482610164565b61011e818561016f565b935061012e818560208601610180565b610137816101b3565b840191505092915050565b6000602082019050818103600083015261015c8184610109565b905092915050565b600081519050919050565b600082825260208201905092915050565b60005b8381101561019e578082015181840152602081019050610183565b838111156101ad576000848401525b50505050565b6000601f19601f8301169050919050565b6105a3806101d36000396000f3fe608060405234801561001057600080fd5b50600436106100365760003560e01c80633b868d021461003b5780634fdbc3dd14610059575b600080fd5b610043610063565b6040516100509190610410565b60405180910390f35b6100616100e3565b005b6000600160005411156100995761009460405180606001604052806021815260200161054d602191396000546101d6565b6100db565b6100da6040518060400160405280601b81526020017f256420696e646976696475616c206861732061666669726d65642100000000008152506000546101d6565b5b600054905090565b60016000808282546100f59190610447565b9250508190555061013b6040518060400160405280601081526020017f2573206861732061666669726d6564210000000000000000000000000000000081525033610272565b565b6101d381604051602401610151919061038e565b6040516020818303038152906040527f41304fac000000000000000000000000000000000000000000000000000000007bffffffffffffffffffffffffffffffffffffffffffffffffffffffff19166020820180517bffffffffffffffffffffffffffffffffffffffffffffffffffffffff838183161783525050505061030e565b50565b61026e82826040516024016101ec9291906103e0565b6040516020818303038152906040527f9710a9d0000000000000000000000000000000000000000000000000000000007bffffffffffffffffffffffffffffffffffffffffffffffffffffffff19166020820180517bffffffffffffffffffffffffffffffffffffffffffffffffffffffff838183161783525050505061030e565b5050565b61030a82826040516024016102889291906103b0565b6040516020818303038152906040527f319af333000000000000000000000000000000000000000000000000000000007bffffffffffffffffffffffffffffffffffffffffffffffffffffffff19166020820180517bffffffffffffffffffffffffffffffffffffffffffffffffffffffff838183161783525050505061030e565b5050565b60008151905060006a636f6e736f6c652e6c6f679050602083016000808483855afa5050505050565b6103408161049d565b82525050565b60006103518261042b565b61035b8185610436565b935061036b8185602086016104d9565b6103748161053b565b840191505092915050565b610388816104cf565b82525050565b600060208201905081810360008301526103a88184610346565b905092915050565b600060408201905081810360008301526103ca8185610346565b90506103d96020830184610337565b9392505050565b600060408201905081810360008301526103fa8185610346565b9050610409602083018461037f565b9392505050565b6000602082019050610425600083018461037f565b92915050565b600081519050919050565b600082825260208201905092915050565b6000610452826104cf565b915061045d836104cf565b9250827fffffffffffffffffffffffffffffffffffffffffffffffffffffffffffffffff038211156104925761049161050c565b5b828201905092915050565b60006104a8826104af565b9050919050565b600073ffffffffffffffffffffffffffffffffffffffff82169050919050565b6000819050919050565b60005b838110156104f75780820151818401526020810190506104dc565b83811115610506576000848401525b50505050565b7f4e487b7100000000000000000000000000000000000000000000000000000000600052601160045260246000fd5b6000601f19601f830116905091905056fe616c6c20256420696e646976696475616c7320686176652061666669726d656421a2646970667358221220f71b6105f67cb3bc8af25ca8caab8b35a32fd6204ef8e02388fc28ae950ebb2764736f6c634300080400334772616e6420526973696e672c204c657473206d616b6520616e2041666669726d6174696f6e732042616e6b",
  "linkReferences": {},
  "deployedLinkReferences": {}
}