{
  "_format": "hh-sol-artifact-1",
  "contractName": "AffirmingPortal",
  "sourceName": "contracts/AffirmingPortal.sol",
  "abi": [
    {
      "inputs": [],
      "stateMutability": "payable",
      "type": "constructor"
    },
    {
      "anonymous": false,
      "inputs": [
        {
          "indexed": false,
          "internalType": "enum AffirmingPortal.Reaction",
          "name": "_reaction",
          "type": "uint8"
        },
        {
          "indexed": false,
          "internalType": "string",
          "name": "message",
          "type": "string"
        },
        {
          "indexed": true,
          "internalType": "address",
          "name": "from",
          "type": "address"
        },
        {
          "indexed": false,
          "internalType": "uint256",
          "name": "timestamp",
          "type": "uint256"
        }
      ],
      "name": "NewAffirmation",
      "type": "event"
    },
    {
      "inputs": [
        {
          "internalType": "enum AffirmingPortal.Reaction",
          "name": "_reaction",
          "type": "uint8"
        },
        {
          "internalType": "string",
          "name": "message",
          "type": "string"
        }
      ],
      "name": "affirm",
      "outputs": [],
      "stateMutability": "nonpayable",
      "type": "function"
    },
    {
      "inputs": [
        {
          "internalType": "uint256",
          "name": "",
          "type": "uint256"
        }
      ],
      "name": "affirmList",
      "outputs": [
        {
          "internalType": "enum AffirmingPortal.Reaction",
          "name": "_reaction",
          "type": "uint8"
        },
        {
          "internalType": "string",
          "name": "message",
          "type": "string"
        },
        {
          "internalType": "address",
          "name": "waver",
          "type": "address"
        },
        {
          "internalType": "uint256",
          "name": "timestamp",
          "type": "uint256"
        }
      ],
      "stateMutability": "view",
      "type": "function"
    },
    {
      "inputs": [],
      "name": "getAllAffirmed",
      "outputs": [
        {
          "components": [
            {
              "internalType": "enum AffirmingPortal.Reaction",
              "name": "_reaction",
              "type": "uint8"
            },
            {
              "internalType": "string",
              "name": "message",
              "type": "string"
            },
            {
              "internalType": "address",
              "name": "waver",
              "type": "address"
            },
            {
              "internalType": "uint256",
              "name": "timestamp",
              "type": "uint256"
            }
          ],
          "internalType": "struct AffirmingPortal.Affirm[]",
          "name": "",
          "type": "tuple[]"
        }
      ],
      "stateMutability": "view",
      "type": "function"
    },
    {
      "inputs": [],
      "name": "getTotalAffirmed",
      "outputs": [
        {
          "internalType": "uint256",
          "name": "",
          "type": "uint256"
        }
      ],
      "stateMutability": "view",
      "type": "function"
    },
    {
      "inputs": [
        {
          "internalType": "address",
          "name": "",
          "type": "address"
        }
      ],
      "name": "lastAffirmedAt",
      "outputs": [
        {
          "internalType": "uint256",
          "name": "",
          "type": "uint256"
        }
      ],
      "stateMutability": "view",
      "type": "function"
    }
  ],
  "bytecode": "0x6080604052620000336040518060600160405280602c8152602001620012a3602c91396200003960201b620006561760201c565b620001cd565b620000d98160405160240162000050919062000146565b6040516020818303038152906040527f41304fac000000000000000000000000000000000000000000000000000000007bffffffffffffffffffffffffffffffffffffffffffffffffffffffff19166020820180517bffffffffffffffffffffffffffffffffffffffffffffffffffffffff8381831617835250505050620000dc60201b60201c565b50565b60008151905060006a636f6e736f6c652e6c6f679050602083016000808483855afa5050505050565b600062000112826200016a565b6200011e818562000175565b93506200013081856020860162000186565b6200013b81620001bc565b840191505092915050565b6000602082019050818103600083015262000162818462000105565b905092915050565b600081519050919050565b600082825260208201905092915050565b60005b83811015620001a657808201518184015260208101905062000189565b83811115620001b6576000848401525b50505050565b6000601f19601f8301169050919050565b6110c680620001dd6000396000f3fe608060405234801561001057600080fd5b50600436106100575760003560e01c806329d078911461005c5780633b868d021461008f5780635658fc37146100ad578063709d3ea5146100cb578063e566e4a6146100fb575b600080fd5b61007660048036038101906100719190610a1a565b610117565b6040516100869493929190610c1d565b60405180910390f35b61009761020c565b6040516100a49190610d3e565b60405180910390f35b6100b5610257565b6040516100c29190610bfb565b60405180910390f35b6100e560048036038101906100e0919061099d565b61042f565b6040516100f29190610d3e565b60405180910390f35b610115600480360381019061011091906109c6565b610447565b005b6002818154811061012757600080fd5b90600052602060002090600402016000915090508060000160009054906101000a900460ff169080600101805461015d90610f0e565b80601f016020809104026020016040519081016040528092919081815260200182805461018990610f0e565b80156101d65780601f106101ab576101008083540402835291602001916101d6565b820191906000526020600020905b8154815290600101906020018083116101b957829003601f168201915b5050505050908060020160009054906101000a900473ffffffffffffffffffffffffffffffffffffffff16908060030154905084565b600061024f6040518060400160405280601781526020017f5765206861766520256420746f74616c207761766573210000000000000000008152506000546106ef565b600054905090565b60606002805480602002602001604051908101604052809291908181526020016000905b8282101561042657838290600052602060002090600402016040518060800160405290816000820160009054906101000a900460ff1660028111156102e9577f4e487b7100000000000000000000000000000000000000000000000000000000600052602160045260246000fd5b6002811115610321577f4e487b7100000000000000000000000000000000000000000000000000000000600052602160045260246000fd5b815260200160018201805461033590610f0e565b80601f016020809104026020016040519081016040528092919081815260200182805461036190610f0e565b80156103ae5780601f10610383576101008083540402835291602001916103ae565b820191906000526020600020905b81548152906001019060200180831161039157829003601f168201915b505050505081526020016002820160009054906101000a900473ffffffffffffffffffffffffffffffffffffffff1673ffffffffffffffffffffffffffffffffffffffff1673ffffffffffffffffffffffffffffffffffffffff1681526020016003820154815250508152602001906001019061027b565b50505050905090565b60036020528060005260406000206000915090505481565b6104876040518060400160405280601081526020017f257320772f206d65737361676520257300000000000000000000000000000000815250338361078b565b60016000808282546104999190610e15565b92505081905550600260405180608001604052808460028111156104e6577f4e487b7100000000000000000000000000000000000000000000000000000000600052602160045260246000fd5b81526020018381526020013373ffffffffffffffffffffffffffffffffffffffff16815260200142815250908060018154018082558091505060019003906000526020600020906004020160009091909190915060008201518160000160006101000a81548160ff0219169083600281111561058b577f4e487b7100000000000000000000000000000000000000000000000000000000600052602160045260246000fd5b021790555060208201518160010190805190602001906105ac929190610853565b5060408201518160020160006101000a81548173ffffffffffffffffffffffffffffffffffffffff021916908373ffffffffffffffffffffffffffffffffffffffff1602179055506060820151816003015550503373ffffffffffffffffffffffffffffffffffffffff167f8127e264cf854d314c2ba85c24545b8007a64fd5327f3eb7501618954b4f2dd983834260405161064a93929190610c69565b60405180910390a25050565b6106ec8160405160240161066a9190610ca7565b6040516020818303038152906040527f41304fac000000000000000000000000000000000000000000000000000000007bffffffffffffffffffffffffffffffffffffffffffffffffffffffff19166020820180517bffffffffffffffffffffffffffffffffffffffffffffffffffffffff838183161783525050505061082a565b50565b6107878282604051602401610705929190610d0e565b6040516020818303038152906040527f9710a9d0000000000000000000000000000000000000000000000000000000007bffffffffffffffffffffffffffffffffffffffffffffffffffffffff19166020820180517bffffffffffffffffffffffffffffffffffffffffffffffffffffffff838183161783525050505061082a565b5050565b6108258383836040516024016107a393929190610cc9565b6040516020818303038152906040527fe0e9ad4f000000000000000000000000000000000000000000000000000000007bffffffffffffffffffffffffffffffffffffffffffffffffffffffff19166020820180517bffffffffffffffffffffffffffffffffffffffffffffffffffffffff838183161783525050505061082a565b505050565b60008151905060006a636f6e736f6c652e6c6f679050602083016000808483855afa5050505050565b82805461085f90610f0e565b90600052602060002090601f01602090048101928261088157600085556108c8565b82601f1061089a57805160ff19168380011785556108c8565b828001600101855582156108c8579182015b828111156108c75782518255916020019190600101906108ac565b5b5090506108d591906108d9565b5090565b5b808211156108f25760008160009055506001016108da565b5090565b600061090961090484610d7e565b610d59565b90508281526020810184848401111561092157600080fd5b61092c848285610ecc565b509392505050565b60008135905061094381611052565b92915050565b60008135905061095881611069565b92915050565b600082601f83011261096f57600080fd5b813561097f8482602086016108f6565b91505092915050565b60008135905061099781611079565b92915050565b6000602082840312156109af57600080fd5b60006109bd84828501610934565b91505092915050565b600080604083850312156109d957600080fd5b60006109e785828601610949565b925050602083013567ffffffffffffffff811115610a0457600080fd5b610a108582860161095e565b9150509250929050565b600060208284031215610a2c57600080fd5b6000610a3a84828501610988565b91505092915050565b6000610a4f8383610b7a565b905092915050565b610a6081610e6b565b82525050565b610a6f81610e6b565b82525050565b6000610a8082610dbf565b610a8a8185610de2565b935083602082028501610a9c85610daf565b8060005b85811015610ad85784840389528151610ab98582610a43565b9450610ac483610dd5565b925060208a01995050600181019050610aa0565b50829750879550505050505092915050565b610af381610eba565b82525050565b610b0281610eba565b82525050565b6000610b1382610dca565b610b1d8185610df3565b9350610b2d818560208601610edb565b610b368161102d565b840191505092915050565b6000610b4c82610dca565b610b568185610e04565b9350610b66818560208601610edb565b610b6f8161102d565b840191505092915050565b6000608083016000830151610b926000860182610aea565b5060208301518482036020860152610baa8282610b08565b9150506040830151610bbf6040860182610a57565b506060830151610bd26060860182610bdd565b508091505092915050565b610be681610eb0565b82525050565b610bf581610eb0565b82525050565b60006020820190508181036000830152610c158184610a75565b905092915050565b6000608082019050610c326000830187610af9565b8181036020830152610c448186610b41565b9050610c536040830185610a66565b610c606060830184610bec565b95945050505050565b6000606082019050610c7e6000830186610af9565b8181036020830152610c908185610b41565b9050610c9f6040830184610bec565b949350505050565b60006020820190508181036000830152610cc18184610b41565b905092915050565b60006060820190508181036000830152610ce38186610b41565b9050610cf26020830185610a66565b8181036040830152610d048184610b41565b9050949350505050565b60006040820190508181036000830152610d288185610b41565b9050610d376020830184610bec565b9392505050565b6000602082019050610d536000830184610bec565b92915050565b6000610d63610d74565b9050610d6f8282610f40565b919050565b6000604051905090565b600067ffffffffffffffff821115610d9957610d98610ffe565b5b610da28261102d565b9050602081019050919050565b6000819050602082019050919050565b600081519050919050565b600081519050919050565b6000602082019050919050565b600082825260208201905092915050565b600082825260208201905092915050565b600082825260208201905092915050565b6000610e2082610eb0565b9150610e2b83610eb0565b9250827fffffffffffffffffffffffffffffffffffffffffffffffffffffffffffffffff03821115610e6057610e5f610f71565b5b828201905092915050565b6000610e7682610e90565b9050919050565b6000819050610e8b8261103e565b919050565b600073ffffffffffffffffffffffffffffffffffffffff82169050919050565b6000819050919050565b6000610ec582610e7d565b9050919050565b82818337600083830152505050565b60005b83811015610ef9578082015181840152602081019050610ede565b83811115610f08576000848401525b50505050565b60006002820490506001821680610f2657607f821691505b60208210811415610f3a57610f39610fcf565b5b50919050565b610f498261102d565b810181811067ffffffffffffffff82111715610f6857610f67610ffe565b5b80604052505050565b7f4e487b7100000000000000000000000000000000000000000000000000000000600052601160045260246000fd5b7f4e487b7100000000000000000000000000000000000000000000000000000000600052602160045260246000fd5b7f4e487b7100000000000000000000000000000000000000000000000000000000600052602260045260246000fd5b7f4e487b7100000000000000000000000000000000000000000000000000000000600052604160045260246000fd5b6000601f19601f8301169050919050565b6003811061104f5761104e610fa0565b5b50565b61105b81610e6b565b811461106657600080fd5b50565b6003811061107657600080fd5b50565b61108281610eb0565b811461108d57600080fd5b5056fea2646970667358221220fed10179d09494d65ad466660bb3a844b7c56524e9da4e1377519f375d489d9864736f6c634300080400334772616e6420526973696e672c204c657473206d616b6520616e2041666669726d6174696f6e732042616e6b",
  "linkReferences": {},
  "deployedLinkReferences": {}
}