{
  "_format": "hh-sol-artifact-1",
  "contractName": "AffirmingPortal",
  "sourceName": "contracts/AffirmingPortal.sol",
  "abi": [
    {
      "inputs": [],
      "stateMutability": "payable",
      "type": "constructor"
    },
    {
      "anonymous": false,
      "inputs": [
        {
          "indexed": false,
          "internalType": "enum AffirmingPortal.Reaction",
          "name": "_reaction",
          "type": "uint8"
        },
        {
          "indexed": false,
          "internalType": "string",
          "name": "message",
          "type": "string"
        },
        {
          "indexed": true,
          "internalType": "address",
          "name": "from",
          "type": "address"
        },
        {
          "indexed": false,
          "internalType": "uint256",
          "name": "timestamp",
          "type": "uint256"
        }
      ],
      "name": "NewAffirmation",
      "type": "event"
    },
    {
      "inputs": [
        {
          "internalType": "enum AffirmingPortal.Reaction",
          "name": "_reaction",
          "type": "uint8"
        },
        {
          "internalType": "string",
          "name": "_message",
          "type": "string"
        }
      ],
      "name": "affirm",
      "outputs": [],
      "stateMutability": "nonpayable",
      "type": "function"
    },
    {
      "inputs": [
        {
          "internalType": "uint256",
          "name": "",
          "type": "uint256"
        }
      ],
      "name": "affirmList",
      "outputs": [
        {
          "internalType": "enum AffirmingPortal.Reaction",
          "name": "_reaction",
          "type": "uint8"
        },
        {
          "internalType": "string",
          "name": "message",
          "type": "string"
        },
        {
          "internalType": "address",
          "name": "waver",
          "type": "address"
        },
        {
          "internalType": "uint256",
          "name": "timestamp",
          "type": "uint256"
        }
      ],
      "stateMutability": "view",
      "type": "function"
    },
    {
      "inputs": [],
      "name": "getAllAffirmed",
      "outputs": [
        {
          "components": [
            {
              "internalType": "enum AffirmingPortal.Reaction",
              "name": "_reaction",
              "type": "uint8"
            },
            {
              "internalType": "string",
              "name": "message",
              "type": "string"
            },
            {
              "internalType": "address",
              "name": "waver",
              "type": "address"
            },
            {
              "internalType": "uint256",
              "name": "timestamp",
              "type": "uint256"
            }
          ],
          "internalType": "struct AffirmingPortal.Affirm[]",
          "name": "",
          "type": "tuple[]"
        }
      ],
      "stateMutability": "view",
      "type": "function"
    },
    {
      "inputs": [],
      "name": "getTotalAffirmed",
      "outputs": [
        {
          "internalType": "uint256",
          "name": "",
          "type": "uint256"
        }
      ],
      "stateMutability": "view",
      "type": "function"
    }
  ],
  "bytecode": "0x6080604052620000336040518060600160405280602c8152602001620011fb602c91396200003960201b620006031760201c565b620001cd565b620000d98160405160240162000050919062000146565b6040516020818303038152906040527f41304fac000000000000000000000000000000000000000000000000000000007bffffffffffffffffffffffffffffffffffffffffffffffffffffffff19166020820180517bffffffffffffffffffffffffffffffffffffffffffffffffffffffff8381831617835250505050620000dc60201b60201c565b50565b60008151905060006a636f6e736f6c652e6c6f679050602083016000808483855afa5050505050565b600062000112826200016a565b6200011e818562000175565b93506200013081856020860162000186565b6200013b81620001bc565b840191505092915050565b6000602082019050818103600083015262000162818462000105565b905092915050565b600081519050919050565b600082825260208201905092915050565b60005b83811015620001a657808201518184015260208101905062000189565b83811115620001b6576000848401525b50505050565b6000601f19601f8301169050919050565b61101e80620001dd6000396000f3fe608060405234801561001057600080fd5b506004361061004c5760003560e01c806329d07891146100515780633b868d02146100845780635658fc37146100a2578063e566e4a6146100c0575b600080fd5b61006b60048036038101906100669190610989565b6100dc565b60405161007b9493929190610b8c565b60405180910390f35b61008c6101d1565b6040516100999190610cad565b60405180910390f35b6100aa61021c565b6040516100b79190610b6a565b60405180910390f35b6100da60048036038101906100d59190610935565b6103f4565b005b600281815481106100ec57600080fd5b90600052602060002090600402016000915090508060000160009054906101000a900460ff169080600101805461012290610e7d565b80601f016020809104026020016040519081016040528092919081815260200182805461014e90610e7d565b801561019b5780601f106101705761010080835404028352916020019161019b565b820191906000526020600020905b81548152906001019060200180831161017e57829003601f168201915b5050505050908060020160009054906101000a900473ffffffffffffffffffffffffffffffffffffffff16908060030154905084565b60006102146040518060400160405280601781526020017f5765206861766520256420746f74616c2077617665732100000000000000000081525060005461069c565b600054905090565b60606002805480602002602001604051908101604052809291908181526020016000905b828210156103eb57838290600052602060002090600402016040518060800160405290816000820160009054906101000a900460ff1660028111156102ae577f4e487b7100000000000000000000000000000000000000000000000000000000600052602160045260246000fd5b60028111156102e6577f4e487b7100000000000000000000000000000000000000000000000000000000600052602160045260246000fd5b81526020016001820180546102fa90610e7d565b80601f016020809104026020016040519081016040528092919081815260200182805461032690610e7d565b80156103735780601f1061034857610100808354040283529160200191610373565b820191906000526020600020905b81548152906001019060200180831161035657829003601f168201915b505050505081526020016002820160009054906101000a900473ffffffffffffffffffffffffffffffffffffffff1673ffffffffffffffffffffffffffffffffffffffff1673ffffffffffffffffffffffffffffffffffffffff16815260200160038201548152505081526020019060010190610240565b50505050905090565b6104346040518060400160405280601081526020017f257320772f206d657373616765202573000000000000000000000000000000008152503383610738565b60016000808282546104469190610d84565b9250508190555060026040518060800160405280846002811115610493577f4e487b7100000000000000000000000000000000000000000000000000000000600052602160045260246000fd5b81526020018381526020013373ffffffffffffffffffffffffffffffffffffffff16815260200142815250908060018154018082558091505060019003906000526020600020906004020160009091909190915060008201518160000160006101000a81548160ff02191690836002811115610538577f4e487b7100000000000000000000000000000000000000000000000000000000600052602160045260246000fd5b02179055506020820151816001019080519060200190610559929190610800565b5060408201518160020160006101000a81548173ffffffffffffffffffffffffffffffffffffffff021916908373ffffffffffffffffffffffffffffffffffffffff1602179055506060820151816003015550503373ffffffffffffffffffffffffffffffffffffffff167f8127e264cf854d314c2ba85c24545b8007a64fd5327f3eb7501618954b4f2dd98383426040516105f793929190610bd8565b60405180910390a25050565b610699816040516024016106179190610c16565b6040516020818303038152906040527f41304fac000000000000000000000000000000000000000000000000000000007bffffffffffffffffffffffffffffffffffffffffffffffffffffffff19166020820180517bffffffffffffffffffffffffffffffffffffffffffffffffffffffff83818316178352505050506107d7565b50565b61073482826040516024016106b2929190610c7d565b6040516020818303038152906040527f9710a9d0000000000000000000000000000000000000000000000000000000007bffffffffffffffffffffffffffffffffffffffffffffffffffffffff19166020820180517bffffffffffffffffffffffffffffffffffffffffffffffffffffffff83818316178352505050506107d7565b5050565b6107d283838360405160240161075093929190610c38565b6040516020818303038152906040527fe0e9ad4f000000000000000000000000000000000000000000000000000000007bffffffffffffffffffffffffffffffffffffffffffffffffffffffff19166020820180517bffffffffffffffffffffffffffffffffffffffffffffffffffffffff83818316178352505050506107d7565b505050565b60008151905060006a636f6e736f6c652e6c6f679050602083016000808483855afa5050505050565b82805461080c90610e7d565b90600052602060002090601f01602090048101928261082e5760008555610875565b82601f1061084757805160ff1916838001178555610875565b82800160010185558215610875579182015b82811115610874578251825591602001919060010190610859565b5b5090506108829190610886565b5090565b5b8082111561089f576000816000905550600101610887565b5090565b60006108b66108b184610ced565b610cc8565b9050828152602081018484840111156108ce57600080fd5b6108d9848285610e3b565b509392505050565b6000813590506108f081610fc1565b92915050565b600082601f83011261090757600080fd5b81356109178482602086016108a3565b91505092915050565b60008135905061092f81610fd1565b92915050565b6000806040838503121561094857600080fd5b6000610956858286016108e1565b925050602083013567ffffffffffffffff81111561097357600080fd5b61097f858286016108f6565b9150509250929050565b60006020828403121561099b57600080fd5b60006109a984828501610920565b91505092915050565b60006109be8383610ae9565b905092915050565b6109cf81610dda565b82525050565b6109de81610dda565b82525050565b60006109ef82610d2e565b6109f98185610d51565b935083602082028501610a0b85610d1e565b8060005b85811015610a475784840389528151610a2885826109b2565b9450610a3383610d44565b925060208a01995050600181019050610a0f565b50829750879550505050505092915050565b610a6281610e29565b82525050565b610a7181610e29565b82525050565b6000610a8282610d39565b610a8c8185610d62565b9350610a9c818560208601610e4a565b610aa581610f9c565b840191505092915050565b6000610abb82610d39565b610ac58185610d73565b9350610ad5818560208601610e4a565b610ade81610f9c565b840191505092915050565b6000608083016000830151610b016000860182610a59565b5060208301518482036020860152610b198282610a77565b9150506040830151610b2e60408601826109c6565b506060830151610b416060860182610b4c565b508091505092915050565b610b5581610e1f565b82525050565b610b6481610e1f565b82525050565b60006020820190508181036000830152610b8481846109e4565b905092915050565b6000608082019050610ba16000830187610a68565b8181036020830152610bb38186610ab0565b9050610bc260408301856109d5565b610bcf6060830184610b5b565b95945050505050565b6000606082019050610bed6000830186610a68565b8181036020830152610bff8185610ab0565b9050610c0e6040830184610b5b565b949350505050565b60006020820190508181036000830152610c308184610ab0565b905092915050565b60006060820190508181036000830152610c528186610ab0565b9050610c6160208301856109d5565b8181036040830152610c738184610ab0565b9050949350505050565b60006040820190508181036000830152610c978185610ab0565b9050610ca66020830184610b5b565b9392505050565b6000602082019050610cc26000830184610b5b565b92915050565b6000610cd2610ce3565b9050610cde8282610eaf565b919050565b6000604051905090565b600067ffffffffffffffff821115610d0857610d07610f6d565b5b610d1182610f9c565b9050602081019050919050565b6000819050602082019050919050565b600081519050919050565b600081519050919050565b6000602082019050919050565b600082825260208201905092915050565b600082825260208201905092915050565b600082825260208201905092915050565b6000610d8f82610e1f565b9150610d9a83610e1f565b9250827fffffffffffffffffffffffffffffffffffffffffffffffffffffffffffffffff03821115610dcf57610dce610ee0565b5b828201905092915050565b6000610de582610dff565b9050919050565b6000819050610dfa82610fad565b919050565b600073ffffffffffffffffffffffffffffffffffffffff82169050919050565b6000819050919050565b6000610e3482610dec565b9050919050565b82818337600083830152505050565b60005b83811015610e68578082015181840152602081019050610e4d565b83811115610e77576000848401525b50505050565b60006002820490506001821680610e9557607f821691505b60208210811415610ea957610ea8610f3e565b5b50919050565b610eb882610f9c565b810181811067ffffffffffffffff82111715610ed757610ed6610f6d565b5b80604052505050565b7f4e487b7100000000000000000000000000000000000000000000000000000000600052601160045260246000fd5b7f4e487b7100000000000000000000000000000000000000000000000000000000600052602160045260246000fd5b7f4e487b7100000000000000000000000000000000000000000000000000000000600052602260045260246000fd5b7f4e487b7100000000000000000000000000000000000000000000000000000000600052604160045260246000fd5b6000601f19601f8301169050919050565b60038110610fbe57610fbd610f0f565b5b50565b60038110610fce57600080fd5b50565b610fda81610e1f565b8114610fe557600080fd5b5056fea2646970667358221220afa3e27d0c5ee39b78ba8401e6ad10cd4d082d63319a29d5aa936c659ef746d464736f6c634300080400334772616e6420526973696e672c204c657473206d616b6520616e2041666669726d6174696f6e732042616e6b",
  "linkReferences": {},
  "deployedLinkReferences": {}
}